:100000000C9472000C9483070C94CC070C94170882
:100010000C9462080C94AD080C94F8080C944309F5
:100020000C948E090C9493000C9493000C94930000
:100030000C946E0A0C9493000C9493000C940A0A8E
:100040000C9493000C9493000C9493000C949300E4
:100050000C943C0A0C9493000C9493000C94D909D2
:100060000C9493000C9493000C9493000C949300C4
:100070000C9493000C9493000C9493000C949300B4
:100080000C9493000C9493000C9493000C949300A4
:100090000C9493000C9493000C9493000C94930094
:1000A0000C9493000C9493000C9493000C94930084
:1000B0000C9493000C9493000C9493000C94930074
:1000C0000C9493000C9493000C9493000C94930064
:1000D0000C9493000C9493000C9493000C94930054
:1000E0000C94930011241FBECFEFD1E2DEBFCDBF31
:1000F00000E00CBF12E0A0E0B2E0E4E5F3E200E0D3
:100100000BBF02C007900D92AE30B107D9F712E0D5
:10011000AEE0B2E001C01D92A233B107E1F70E9448
:1001200090050C94A8110C94A00ADF93CF9300D0F3
:100130000F92CDB7DEB769837A838B839C838981E5
:100140009A81AB81BC818093120290931302A09399
:100150001402B09315020F900F900F900F90CF9153
:10016000DF910895DF93CF930F920F92CDB7DEB753
:100170009A838983F894E981FA810190F081E02DD6
:100180000280F381E02D80819181019691838083AB
:1001900078940F900F90CF91DF910895DF93CF93D4
:1001A000CDB7DEB7E0911C02F0911D020280F38111
:1001B000E02D8081918199234CF4E0911C02F09113
:1001C0001D020280F381E02D11821082E0911C0259
:1001D000F0911D020280F381E02D808191810097D2
:1001E000A9F3E0911C02F0911D020280F381E02D41
:1001F00080819181019791838083CF91DF910895D0
:10020000DF93CF93CDB7DEB727970FB6F894DEBF55
:100210000FBECDBF9E838D836F83ED81FE81808174
:1002200091819C838B83EB81FC810280F381E02DA3
:1002300080819181181619060CF49CC0EB81FC8119
:100240000280F381E02D118210828AC0EDE5F0E09A
:10025000808191819A838983EB81FC81878190855C
:10026000009791F58091260290912702009761F105
:10027000809126029091270229813A81821B930B5B
:100280008532910548F42091260230912702898118
:100290009A812817390748F4EDE5F0E080912602AD
:1002A00090912702918380830FC020912602309184
:1002B000270289819A812817390730F0EDE5F0E0AF
:1002C00089819A819183808301D03FC00F920FB6BC
:1002D000F8940F921F9211242F923F924F925F92A7
:1002E0006F927F928F929F92AF92BF92CF92DF9246
:1002F000EF92FF920F931F932F933F934F935F9330
:100300006F937F938F939F93AF93BF93CF93DF931D
:10031000EF93FF938DB79EB7EB81FC819087878326
:10032000EB81FC8187819085909327028093260240
:1003300080E080931E02EDE5F0E089819A8191834F
:10034000808307FEF89407FC7894000080911E02D9
:10035000882331F480911602909117020E94E706DB
:10036000EB81FC810280F381E02D808191810097F7
:1003700009F46CCFEB81FC810280F381E02D808158
:100380009181019791838083EB81FC8180819181B0
:1003900027960FB6F894DEBF0FBECDBFCF91DF9189
:1003A00008950F931F93DF93CF9300D00F92CDB793
:1003B000DEB79A8389837C836B83E981FA818081AC
:1003C00091810097F1F489E090E00E945F07E98154
:1003D000FA8191838083E981FA810081118184E02F
:1003E00090E00E945F07F80191838083E981FA81A0
:1003F0000081118182E090E00E945F07F801938301
:100400008283E981FA810190F081E02D0190F081F1
:10041000E02D11821082E981FA810190F081E02DB6
:100420000190F081E02D13821282E981FA8101901E
:10043000F081E02D0280F381E02D11821082E981AC
:10044000FA810190F081E02D1482E981FA81019016
:10045000F081E02D8B819C8196838583E981FA81EF
:100460000190F081E02D108617820F900F900F9071
:100470000F90CF91DF911F910F910895DF93CF934C
:100480000F920F92CDB7DEB79A838983E981FA8103
:100490000190F081E02D808191810E947007E981B7
:1004A000FA810190F081E02D828193810E94700792
:1004B000E981FA81808191810E9470070F900F90ED
:1004C000CF91DF910895DF93CF930F920F92CDB725
:1004D000DEB71A821982F894809121028F5F80938F
:1004E000210280912102813031F0809121028150DE
:1004F0008093210204C081E090E09A8389838981FE
:100500009A81009749F30F900F90CF91DF91089552
:10051000DF93CF93CDB7DEB78091210281508093D6
:1005200021027894CF91DF910895DF93CF930F92BA
:100530000F92CDB7DEB79A838983E981FA81019062
:10054000F081E02D0190F081E02D11821082E9818F
:10055000FA810190F081E02D0190F081E02D13826D
:100560001282E981FA810190F081E02D0280F3810D
:10057000E02D11821082E981FA810190F081E02D55
:10058000108617820F900F90CF91DF910895DF931F
:10059000CF9300D000D0CDB7DEB79C838B837E8312
:1005A0006D8384E090E00E945F079A838983EB81EA
:1005B000FC810190F081E02D80819181E981FA81B7
:1005C00091838083EB81FC810190F081E02D828119
:1005D0009381E981FA8193838283ED81FE81019089
:1005E000F081E02D89819A81918380838D819E8124
:1005F0000E94B20026960FB6F894DEBF0FBECDBFA4
:10060000CF91DF910895DF93CF930F920F92CDB7E3
:10061000DEB784E292E060E00E9400019A83898361
:10062000F894A89581E080930F0210920E02E6E400
:10063000F0E011821082A5E4B0E0E5E4F0E0808112
:100640009181856011969C938E93A0911F02B09129
:100650002002E981FA818081918111969C938E9389
:10066000E0911F02F09120028091240290912502D6
:10067000938382838FE192E02AE132E0B9010E9404
:10068000C702E4E8F0E011821082A1E8B0E0E1E8FE
:10069000F0E080819181846011969C938E93789490
:1006A000B8CFDF93CF93CDB7DEB784E090E00E9460
:1006B0005F079093200280931F0284E292E023E080
:1006C00033E0B9010E94D1018AE192E027E434E0ED
:1006D000B9010E94D10188E192E02BE035E0B90137
:1006E0000E94D1018CE192E022EA33E0B9010E943C
:1006F000D101809124029091250290932902809348
:10070000280280911A0290911B0290932B028093F1
:100710002A02809118029091190290932D028093E1
:100720002C020E94D50610921E02109217021092FF
:10073000160210922702109226020E94A203CF9165
:10074000DF910895DF93CF930F92CDB7DEB7198273
:100750004BC001D032C00F920FB6F8940F921F9287
:1007600011242F923F924F925F926F927F928F92BD
:100770009F92AF92BF92CF92DF92EF92FF920F9330
:100780001F932F933F934F935F936F937F938F9319
:100790009F93AF93BF93CF93DF93EF93FF93EDE5D9
:1007A000F0E080819181909317028093160210925D
:1007B0001E0207FEF89407FC7894000080911E0248
:1007C000882391F48981882F90E0880F991FFC017C
:1007D000E85DFD4F0190F081E02D0580F681E02D70
:1007E00089818F5F898319958981833008F4B1CF1E
:1007F00078940E94CE008981833008F0198201D05C
:1008000032C00F920FB6F8940F921F9211242F92BC
:100810003F924F925F926F927F928F929F92AF9290
:10082000BF92CF92DF92EF92FF920F931F932F937D
:100830003F934F935F936F937F938F939F93AF9368
:10084000BF93CF93DF93EF93FF93EDE5F0E08081CB
:100850009181909317028093160210921E0207FE58
:10086000F89407FC789400008981882F90E0880F25
:10087000991FFC01E85DFD4F0190F081E02D27817B
:10088000308589818F5F8983C9010E94E706DF93E4
:10089000CF9300D00F920F92CDB7DEB781E08D835A
:1008A00081E08C831B828AE192E060E00E9400017B
:1008B0009A838983F894E981FA8122813381809136
:1008C00024029091250228173907F1F4A5E2B0E03F
:1008D000E981FA812081318181E090E002C0880FB6
:1008E000991F2A95E2F711969C938E93E981FA81DC
:1008F000808191818B8381E08C8381E08D838AE18B
:1009000092E00E94950285C0E981FA8122813381BB
:1009100080911802909119022817390759F5E98139
:10092000FA81808191818B83A5E2B0E0E981FA812F
:100930002081318181E090E002C0880F991F2A95C3
:10094000E2F711969C938E9381E08C831D828AE15D
:1009500092E00E949502E4E8F0E011821082A1E8A2
:10096000B0E0E1E8F0E080819181846011969C9391
:100970008E934FC0E981FA8182819381009709F0BB
:1009800048C08B81282F30E08D81882F90E0A9010D
:10099000481B590BCA01992314F41D8216C0E5E2C5
:1009A000F0E08B81282F30E08D81882F90E0281B8C
:1009B000390B81E090E002C0880F991F2A95E2F779
:1009C000918380838D818F5F8D838B81282F30E091
:1009D0008C81882F90E0820F931F8830910514F04E
:1009E0001C8217C0E5E2F0E08B81282F30E08C817B
:1009F000882F90E0280F391F81E090E0022E02C07E
:100A0000880F991F0A94E2F7918380838C818F5F0E
:100A10008C83789448CFDF93CF93CDB7DEB72D97F3
:100A20000FB6F894DEBF0FBECDBF88E08B8380E1A8
:100A30008A8388E08C8384E08D8382E08E8381E0EA
:100A40008F8388E192E060E00E940001F8941982AF
:100A500038C08A81482F50E08981282F30E0CE01AC
:100A60000496FC01E20FF31F8081882F90E09A0129
:100A7000281B390BC9019D878C878C859D859923FF
:100A80003CF42C853D85309521953F4F3D872C8743
:100A90008B81282F30E03B872A878C859D8599871D
:100AA0008887288539858A859B858217930724F452
:100AB0002A853B853987288738853B8389818F5FE5
:100AC00089838981843028F28B818A838A81882373
:100AD00019F580E18A83A1E8B0E0E1E8F0E08081E7
:100AE00091818B7F11969C938E93E0911F02F091E0
:100AF000200211821082E0911F02F0912002809169
:100B0000180290911902938382838FE192E02AE187
:100B100032E0B9010E94C70288E08B83789491CFBC
:100B2000DF93CF93CDB7DEB760E070E080E09FE366
:100B30000E9495000E94510380E090E0CF91DF91E8
:100B40000895DF93CF93CDB7DEB7E4E4F0E083E020
:100B500090E091838083E5E4F0E088E090E0918389
:100B60008083E7E4F0E08EE090E091838083EEE61E
:100B7000F0E081E090E091838083A5E4B0E0E5E4DB
:100B8000F0E080819181887F11969C938E931092E2
:100B90001002CF91DF910895DF93CF93CDB7DEB7E9
:100BA000A5E5B0E0E5E5F0E0808191818F7E1196CA
:100BB0009C938E93AAE2B0E0EAE2F0E0808191811A
:100BC000887F11969C938E93ADE2B0E0EAE2F0E06C
:100BD000808191818770907011969C938E93E9E645
:100BE000F0E08FEF90E091838083EAE6F0E08FEF12
:100BF00090E091838083EDE3F0E08FEF90E09183CC
:100C0000808310921102CF91DF910895DF93CF93EB
:100C1000CDB7DEB7E0E7F0E081E090E0918380833C
:100C2000E3EBF0E085E190E091838083E0EBF0E09E
:100C300083E090E091838083E1EBF0E08AE090E054
:100C400091838083E3E4F0E082E890E09183808305
:100C5000A3E4B0E0E3E4F0E0808191818F77119626
:100C60009C938E93CF91DF9108950F931F93DF9301
:100C7000CF93CDB7DEB7E4E2F0E08FEF90E0918361
:100C80008083E5E2F0E011821082E0E8F0E083E0AA
:100C900090E091838083E1E8F0E088E190E0918347
:100CA0008083EFE6F0E081E090E09183808308E8C4
:100CB00010E08091120290911302A0911402B09161
:100CC0001502BC01CD0120E030E040E251E40E9479
:100CD0009C0CDC01CB01BC01CD0120E030E244E7FB
:100CE00055E40E949C0CDC01CB01BC01CD0128E243
:100CF0003BE64EE65EE40E94960DDC01CB01BC01B2
:100D0000CD0120E23CEB4EEB5CE40E949C0CDC014C
:100D1000CB01BC01CD010E94C60ADC01CB01F80168
:100D200091838083A1E8B0E0E1E8F0E080819181E7
:100D30008B7F11969C938E93CF91DF911F910F9192
:100D40000895DF93CF93CDB7DEB7F894A895A4E5C7
:100D5000B0E0E4E5F0E080819181886011969C9399
:100D60008E93A0E6B0E0E0E6F0E0808191818963B7
:100D700011969C938E937894A0E6B0E0E0E6F0E0C4
:100D800080819181886111969C938E93A0E6B0E05A
:100D9000E0E6F0E080819181877B806411969C93EE
:100DA0008E93F894CF91DF910895DF93CF93CDB7D1
:100DB000DEB70E94CC050E94A1050E9435060E9464
:100DC00006060E94A106F894CF91DF9108959B83B7
:100DD0008A838A819B812FB72078F8948DBF9EBF2C
:100DE00029839B838A8381E080931E02FF91EF9188
:100DF000DF91CF91BF91AF919F918F917F916F9133
:100E00005F914F913F912F911F910F91FF90EF9024
:100E1000DF90CF90BF90AF909F908F907F906F901A
:100E20005F904F903F902F901F900F900FBE0F90AC
:100E30008F93898187FD78948F910895DF93CF9365
:100E40000F920F92CDB7DEB79A8389830F920FB6B8
:100E5000F8940F921F9211242F923F924F925F921B
:100E60006F927F928F929F92AF92BF92CF92DF92BA
:100E7000EF92FF920F931F932F933F934F935F93A4
:100E80006F937F938F939F93AF93BF93CF93DF9392
:100E9000EF93FF93E981FA818DB79EB780839183A9
:100EA00081968DBF9EBF80E080931E0207FEF8945E
:100EB00007FC78940F900F90CF91DF910895DF9306
:100EC000CF930F920F92CDB7DEB79A838983898132
:100ED0009A810E94A3100F900F90CF91DF910895F7
:100EE000DF93CF930F920F92CDB7DEB79A838983AA
:100EF00089819A810E9450111A8219820F900F9055
:100F0000CF91DF9108951F920F920FB60F9200902C
:100F10005B000F9211242F933F934F935F936F9336
:100F20007F938F939F93AF93BF93EF93FF93DF9341
:100F3000CF93CDB7DEB7809110028823B9F48091AA
:100F40001102882399F4E0911F02F091200211828E
:100F50001082E0911F02F0912002138212828FE131
:100F600092E024E232E0B9010E94C702CF91DF9102
:100F7000FF91EF91BF91AF919F918F917F916F9171
:100F80005F914F913F912F910F9000925B000F90D6
:100F90000FBE0F901F9018951F920F920FB60F92D1
:100FA00000905B000F9211242F933F934F935F9318
:100FB0006F937F938F939F93AF93BF93EF93FF9321
:100FC000DF93CF93CDB7DEB7809110028823C9F4A9
:100FD000809111028823A9F4E0911F02F091200270
:100FE00081E090E091838083E0911F02F0912002E4
:100FF000138212828FE192E024E232E0B9010E9472
:10100000C702CF91DF91FF91EF91BF91AF919F9177
:101010008F917F916F915F914F913F912F910F90A1
:1010200000925B000F900FBE0F901F9018951F92BB
:101030000F920FB60F9200905B000F9211242F9326
:101040003F934F935F936F937F938F939F93AF9350
:10105000BF93EF93FF93DF93CF93CDB7DEB780912C
:1010600010028823C9F4809111028823A9F4E09129
:101070001F02F091200282E090E091838083E09152
:101080001F02F0912002138212828FE192E024E28B
:1010900032E0B9010E94C702CF91DF91FF91EF9139
:1010A000BF91AF919F918F917F916F915F914F9180
:1010B0003F912F910F9000925B000F900FBE0F9009
:1010C0001F9018951F920F920FB60F9200905B0021
:1010D0000F9211242F933F934F935F936F937F93BE
:1010E0008F939F93AF93BF93EF93FF93DF93CF9330
:1010F000CDB7DEB7809110028823C9F48091110228
:101100008823A9F4E0911F02F091200283E090E08F
:1011100091838083E0911F02F0912002138212825A
:101120008FE192E024E232E0B9010E94C702CF9140
:10113000DF91FF91EF91BF91AF919F918F917F913F
:101140006F915F914F913F912F910F9000925B00B3
:101150000F900FBE0F901F9018951F920F920FB611
:101160000F9200905B000F9211242F933F934F93A7
:101170005F936F937F938F939F93AF93BF93EF93FF
:10118000FF93DF93CF93CDB7DEB780911002882312
:10119000C9F4809111028823A9F4E0911F02F09113
:1011A000200284E090E091838083E0911F02F0911F
:1011B0002002138212828FE192E024E232E0B90130
:1011C0000E94C702CF91DF91FF91EF91BF91AF9144
:1011D0009F918F917F916F915F914F913F912F914F
:1011E0000F9000925B000F900FBE0F901F9018950C
:1011F0001F920F920FB60F9200905B000F92112476
:101200002F933F934F935F936F937F938F939F930E
:10121000AF93BF93EF93FF93DF93CF93CDB7DEB739
:10122000809110028823C9F4809111028823A9F4C7
:10123000E0911F02F091200285E090E0918380838D
:10124000E0911F02F0912002138212828FE192E05E
:1012500024E232E0B9010E94C702CF91DF91FF91F1
:10126000EF91BF91AF919F918F917F916F915F911E
:101270004F913F912F910F9000925B000F900FBE06
:101280000F901F9018951F920F920FB60F9200901B
:101290005B000F9211242F933F934F935F936F93B3
:1012A0007F938F939F93AF93BF93EF93FF93DF93BE
:1012B000CF93CDB7DEB7809110028823C9F4809117
:1012C00011028823A9F4E0911F02F091200286E028
:1012D00090E091838083E0911F02F09120021382BD
:1012E00012828FE192E024E232E0B9010E94C7024B
:1012F000CF91DF91FF91EF91BF91AF919F918F912E
:101300007F916F915F914F913F912F910F9000923C
:101310005B000F900FBE0F901F9018951F920F92B9
:101320000FB60F9200905B000F9211242F933F9302
:101330004F935F936F937F938F939F93AF93BF93DD
:10134000EF93FF93DF93CF93CDB7DEB78091100279
:101350008823C9F4809111028823A9F4E0911F0227
:10136000F091200287E090E091838083E0911F025A
:10137000F0912002138212828FE192E024E232E0A7
:10138000B9010E94C702CF91DF91FF91EF91BF9108
:10139000AF919F918F917F916F915F914F913F910D
:1013A0002F910F9000925B000F900FBE0F901F9037
:1013B00018951F920F920FB60F9200905B000F923C
:1013C00011248F939F93AF93BF93EF93FF93DF937A
:1013D000CF93CDB7DEB71092110281E08093100257
:1013E000A5E4B0E0E5E4F0E080819181887F11968A
:1013F0009C938E93CF91DF91FF91EF91BF91AF912D
:101400009F918F910F9000925B000F900FBE0F90F5
:101410001F9018951F920F920FB60F9200905B00CD
:101420000F9211242F933F934F935F936F937F936A
:101430008F939F93AF93BF93EF93FF93DF93CF93DC
:10144000CDB7DEB78CE192E00E94B200CF91DF9180
:10145000FF91EF91BF91AF919F918F917F916F918C
:101460005F914F913F912F910F9000925B000F90F1
:101470000FBE0F901F9018951F920F920FB60F92EC
:1014800000905B000F9211242F933F934F935F9333
:101490006F937F938F939F93AF93BF93EF93FF933C
:1014A000DF93CF93CDB7DEB78AE192E00E94B2001E
:1014B000CF91DF91FF91EF91BF91AF919F918F916C
:1014C0007F916F915F914F913F912F910F9000927B
:1014D0005B000F900FBE0F901F9018951F920F92F8
:1014E0000FB60F9200905B000F9211242F933F9341
:1014F0004F935F936F937F938F939F93AF93BF931C
:10150000EF93FF93DF93CF93CDB7DEB788E192E0FF
:101510000E94B200CF91DF91FF91EF91BF91AF9107
:101520009F918F917F916F915F914F913F912F91FB
:101530000F9000925B000F900FBE0F901F901895B8
:101540001F920F920FB60F9200905B000F92112422
:101550008F939F93EF93FF93DF93CF93CDB7DEB736
:10156000E0911F02F091200281E090E0918380835E
:10157000CF91DF91FF91EF919F918F910F9000920A
:101580005B000F900FBE0F901F901895EF92FF9287
:101590000F931F937B018C0120E030E040E05FE47B
:1015A0000E94420E88238CF0C801B70120E030E091
:1015B00040E05FE40E943E0C0E94720E9B01AC0171
:1015C000205030404040504806C0C801B7010E943A
:1015D000720E9B01AC01B901CA011F910F91FF90DE
:1015E000EF900895A0E0B0E0E8EFFAE00C946C1002
:1015F000DC012B01FA019C91923008F439C1EB0116
:101600008881823008F433C1943069F4843009F061
:101610002FC111969C9111978981981709F428C1BF
:10162000A0E0B2E025C1843009F421C18230A9F4E0
:10163000923009F01DC19A01AD0188E0EA010990DC
:10164000AE01E90109929E018150C1F7E201898151
:1016500011969C918923818308C1923009F407C1B6
:1016600012962D903C901397EB018A819B811496E2
:10167000AD90BD90CD90DC901797EC80FD800E81F1
:101680001F819101281B390BB90137FF04C0662760
:101690007727621B730B603271050CF061C0121664
:1016A00013066CF537014801062E04C09694879402
:1016B000779467940A94D2F721E030E040E050E05C
:1016C00004C0220F331F441F551F6A95D2F72150C3
:1016D0003040404050402E213F21402351232115CE
:1016E00031054105510521F021E030E040E050E0B6
:1016F00079018A01E628F728082919293CC0232BFB
:10170000D1F1260E371E35014601062E04C09694EF
:101710008794779467940A94D2F721E030E040E010
:1017200050E004C0220F331F441F551F6A95D2F7A3
:1017300021503040404050402A213B214C215D2126
:10174000211531054105510521F021E030E040E04F
:1017500050E059016A01A628B728C828D9280BC02B
:10176000821593052CF01C01AA24BB24650103C03B
:10177000EE24FF24870111969C91D20111968C9141
:10178000981709F445C0992339F0A80197012A193F
:101790003B094C095D0906C0A60195012E193F09B8
:1017A000400B510B57FD08C01182338222822483E3
:1017B0003583468357831DC081E081833382228233
:1017C00088279927DC01821B930BA40BB50B84831C
:1017D0009583A683B7830DC0220F331F441F551F67
:1017E0002483358346835783828193810197938332
:1017F00082832481358146815781DA01C9010197AD
:10180000A109B1098F5F9F4FAF4FBF4328F30BC0B2
:10181000918333822282EA0CFB1C0C1D1D1DE48285
:10182000F5820683178383E0808324813581468196
:10183000578157FF1AC0C901AA2797FDA095BA2F53
:1018400081709070A070B070569547953795279528
:10185000822B932BA42BB52B84839583A683B783EC
:1018600082819381019693838283DF0101C0D2013B
:10187000CD01CDB7DEB7E2E10C948810A0E2B0E074
:10188000E4E4FCE00C94781069837A838B839C8376
:101890002D833E834F835887E9E0EE2EF12CEC0E2A
:1018A000FD1ECE010196B7010E949B0F8E010F5EB7
:1018B0001F4FCE010596B8010E949B0F8A8991E0C7
:1018C00089278A8BC701B801AE01475E5F4F0E942E
:1018D000F20A0E94C60EA096E6E00C949410A0E2D4
:1018E000B0E0E5E7FCE00C94781069837A838B83A1
:1018F0009C832D833E834F835887F9E0EF2EF12C94
:10190000EC0EFD1ECE010196B7010E949B0F8E01C9
:101910000F5E1F4FCE010596B8010E949B0FC701B5
:10192000B801AE01475E5F4F0E94F20A0E94C60EE8
:10193000A096E6E00C949410A0E2B0E0E2EAFCE0AD
:101940000C946C1069837A838B839C832D833E83F4
:101950004F835887CE010196BE01675F7F4F0E947B
:101960009B0FCE010596BE016F5E7F4F0E949B0FBD
:101970009985923088F089898230C8F0943019F4C2
:10198000823051F404C0843029F4923081F480E034
:1019900092E0C6C0923049F420E09A858A89981373
:1019A00021E02A87CE010996BBC0823049F420E0AD
:1019B0009A858A89981321E02A8BCE014196B0C07E
:1019C0002D843E844F8458886D887E888F88988CBB
:1019D000EE24FF248701AA24BB24650140E050E0E7
:1019E00060E070E0E0E0F0E0C10181709070892B70
:1019F000E9F0E60CF71C081D191D9A01AB012A0D30
:101A00003B1D4C1D5D1D80E090E0A0E0B0E0E614C1
:101A1000F7040805190520F481E090E0A0E0B0E0AB
:101A2000BA01A901480F591F6A1F7B1FAA0CBB1CD2
:101A3000CC1CDD1C97FE08C081E090E0A0E0B0E087
:101A4000A82AB92ACA2ADB2A3196E032F10549F0E0
:101A5000660C771C881C991C5694479437942794DD
:101A6000C3CFFA85EA892B893C898B859C85280F11
:101A7000391F2E5F3F4F17C0CA0181709070892BAC
:101A800061F016950795F794E79480E090E0A0E068
:101A9000B0E8E82AF92A0A2B1B2B7695679557950B
:101AA00047952F5F3F4F77FDE7CF0CC0440F551F81
:101AB000661F771F17FD4160EE0CFF1C001F111FF2
:101AC00021503040403090E0590790E0690790E4A1
:101AD000790760F32B8F3C8FDB01CA018F77907001
:101AE000A070B07080349105A105B10561F447FD87
:101AF0000AC0E114F1040105110529F0405C5F4FB3
:101B00006F4F7F4F40781A8EFE1711F081E08A8F59
:101B10004D8F5E8F6F8F78A383E0898FCE014996BA
:101B20000E94C60EA096E2E10C948810A8E1B0E0F5
:101B3000ECE9FDE00C94741069837A838B839C83B9
:101B40002D833E834F835887B9E0EB2EF12CEC0EAA
:101B5000FD1ECE010196B7010E949B0F8E010F5E04
:101B60001F4FCE010596B8010E949B0F2985223098
:101B700008F47EC03989323010F4B8017CC08A85FF
:101B80009A8989278A87243011F0223031F423176B
:101B900009F06EC060E072E06EC0343039F41D862A
:101BA0001E861F86188A1C861B8604C0323021F4CC
:101BB00084E08987B7015FC02B853C858B899C8930
:101BC000281B390B3C872B87ED84FE840F851889F1
:101BD000AD88BE88CF88D88CEA14FB040C051D059F
:101BE00040F4EE0CFF1C001F111F215030403C87B9
:101BF0002B8720E030E040E050E080E090E0A0E083
:101C0000B0E460E070E0EA14FB040C051D0540F050
:101C1000282B392B4A2B5B2BEA18FB080C091D09D2
:101C2000B695A79597958795EE0CFF1C001F111F81
:101C30006F5F7F4F6F31710531F7DA01C9018F771F
:101C40009070A070B07080349105A105B10561F469
:101C500027FD0AC0E114F1040105110529F0205CFB
:101C60003F4F4F4F5F4F20782D873E874F87588BD0
:101C7000BE01675F7F4FCB010E94C60E6896EAE007
:101C80000C949010A8E1B0E0E8E4FEE00C94781029
:101C900069837A838B839C832D833E834F8358870C
:101CA00089E0E82EF12CEC0EFD1ECE010196B70165
:101CB0000E949B0F8E010F5E1F4FCE010596B8014B
:101CC0000E949B0F8985823040F08989823028F0FC
:101CD000C701B8010E94131001C08FEF6896E6E0BB
:101CE0000C949410ACE0B0E0E8E7FEE00C947C10BB
:101CF00069837A838B839C83CE010196BE016B5FDF
:101D00007F4F0E949B0F8D81823061F1823050F1B4
:101D1000843021F48E81882351F12EC02F813885A3
:101D200037FD20C06E812F3131051CF06623F9F09C
:101D300023C08EE190E0821B930B29853A854B8569
:101D40005C8504C056954795379527958A95D2F7B7
:101D50006623B1F050954095309521953F4F4F4FF8
:101D60005F4F0EC020E030E040E050E009C02FEFB0
:101D70003FEF4FEF5FE704C020E030E040E050E885
:101D8000B901CA012C96E2E00C949810DF92EF9210
:101D9000FF920F931F93FC01E480F5800681178169
:101DA000D1808081823048F480E090E0A0E1B0E012
:101DB000E82AF92A0A2B1B2BA5C0843009F49FC0FE
:101DC000823021F4EE24FF24870105C0E114F104E0
:101DD0000105110519F4E0E0F0E096C0628173811D
:101DE0009FEF623879070CF05BC022E83FEF261BBB
:101DF000370B2A3131052CF020E030E040E050E094
:101E00002AC0B801A701022E04C0769567955795A0
:101E100047950A94D2F781E090E0A0E0B0E004C0DA
:101E2000880F991FAA1FBB1F2A95D2F70197A109F6
:101E3000B1098E219F21A023B1230097A105B105EF
:101E400021F081E090E0A0E0B0E09A01AB01282B06
:101E5000392B4A2B5B2BDA01C9018F779070A07068
:101E6000B07080349105A105B10539F427FF09C090
:101E7000205C3F4F4F4F5F4F04C0215C3F4F4F4F9F
:101E80005F4FE0E0F0E02030A0E03A07A0E04A0732
:101E9000A0E45A0710F0E1E0F0E079018A0127C0E0
:101EA0006038710564F5FB01E158FF4FD801C701A7
:101EB0008F779070A070B07080349105A105B10546
:101EC00039F4E7FE0DC080E490E0A0E0B0E004C08B
:101ED0008FE390E0A0E0B0E0E80EF91E0A1F1B1FA0
:101EE00017FF05C016950795F794E794319687E09C
:101EF00016950795F794E7948A95D1F705C0EE24D7
:101F0000FF248701EFEFF0E06E2F67956627679556
:101F1000902F9F77D794DD24D7948E2F8695492FC5
:101F2000462B582F5D29B701CA011F910F91FF90D1
:101F3000EF90DF900895FC01DB0140815181228107
:101F4000622F6F7770E0221F2227221F9381892F33
:101F5000880F822B282F30E0991F9927991F1196FF
:101F60009C93119721153105A9F54115510561057E
:101F7000710511F482E037C082E89FEF13969C93BD
:101F80008E9312979A01AB0167E0220F331F441F13
:101F9000551F6A95D1F783E08C930DC0220F331F34
:101FA000441F551F12968D919C911397019713967C
:101FB0009C938E931297203080E0380780E048078A
:101FC00080E4580758F314962D933D934D935C93FA
:101FD000179708952F3F310579F441155105610593
:101FE000710519F484E08C93089564FF03C081E0C7
:101FF0008C9312C01C9210C02F57304013963C9304
:102000002E93129783E08C9387E0440F551F661F31
:10201000771F8A95D1F7706414964D935D936D93F5
:102020007C93179708951F93DC01FB019C919230DC
:1020300008F447C08081823008F443C0943051F4E2
:1020400011961C91843099F58181682F70E0611B95
:1020500071093FC0843021F0923031F48230B9F1FF
:102060008181882389F12DC011961C9111978230AE
:10207000F1F081811817D9F412962D913C911397A4
:10208000828193818217930794F028173907BCF057
:1020900014968D919D910D90BC91A02D2481358138
:1020A00046815781281739074A075B0718F411231F
:1020B00041F00AC082179307A407B50740F4112323
:1020C00019F061E070E005C06FEF7FEF02C060E0E3
:1020D00070E0CB011F9108952F923F924F925F9233
:1020E0006F927F928F929F92AF92BF92CF92DF9228
:1020F000EF92FF920F931F93CF93DF93CDB7DEB78D
:10210000CA1BDB0B0FB6F894DEBF0FBECDBF199410
:102110002A88398848885F846E847D848C849B8477
:10212000AA84B984C884DF80EE80FD800C811B8185
:10213000AA81B981CE0FD11D0FB6F894DEBF0FBEB4
:10214000CDBFED010895CF93DF93BC01823091059F
:1021500010F462E070E0A0913002B0913102ED0124
:10216000E0E0F0E040E050E021C0888199818617EE
:10217000970769F48A819B81309719F09383828352
:1021800004C09093310280933002FE0134C068177E
:10219000790738F44115510519F08417950708F4AB
:1021A000AC01FE018A819B819C01E9012097E9F63F
:1021B00041155105A9F1CA01861B970B049708F434
:1021C000BA01E0E0F0E02AC08D919C91119784174C
:1021D0009507F9F46417750781F412968D919C9117
:1021E0001397309719F09383828304C09093310240
:1021F00080933002FD0132964FC0CA01861B970BB7
:10220000FD01E80FF91F6193719302978D939C93E1
:1022100043C0FD01828193819C01D9011097A1F6F1
:1022200080912E0290912F02892B41F480910A0215
:1022300090910B0290932F0280932E0240910C02FA
:1022400050910D024115510541F44DB75EB7809193
:10225000080290910902481B590B20912E023091DF
:102260002F0224173507B0F4CA01821B930B86177F
:10227000970780F0AB014E5F5F4F8417950750F0D2
:10228000420F531F50932F0240932E02F901619386
:10229000719302C0E0E0F0E0CF01DF91CF910895AB
:1022A000CF93DF93009709F450C0EC0122971B8273
:1022B0001A82A0913002B0913102109709F140E0EA
:1022C00050E0AC17BD0708F1BB83AA83FE01219142
:1022D0003191E20FF31FAE17BF0779F48D919C91F6
:1022E0001197280F391F2E5F3F4F3983288312968D
:1022F0008D919C9113979B838A834115510571F4AD
:10230000D0933102C093300220C012968D919C91DF
:102310001397AD01009711F0DC01D3CFFA01D383FD
:10232000C28321913191E20FF31FCE17DF0769F4C9
:1023300088819981280F391F2E5F3F4FFA01318321
:1023400020838A819B8193838283DF91CF9108953B
:04235000F894FFCF2F
:0E235400000000000000000020003202000027
:00000001FF
